{
  "contractName": "LandRegistry",
  "abi": [
    {
      "constant": true,
      "inputs": [
        {
          "name": "",
          "type": "uint256"
        }
      ],
      "name": "land",
      "outputs": [
        {
          "name": "id",
          "type": "address"
        },
        {
          "name": "ipfsHash",
          "type": "string"
        },
        {
          "name": "laddress",
          "type": "string"
        },
        {
          "name": "lamount",
          "type": "uint256"
        },
        {
          "name": "key",
          "type": "uint256"
        },
        {
          "name": "isGovtApproved",
          "type": "string"
        },
        {
          "name": "isAvailable",
          "type": "string"
        },
        {
          "name": "requester",
          "type": "address"
        },
        {
          "name": "requestStatus",
          "type": "uint8"
        }
      ],
      "payable": false,
      "stateMutability": "view",
      "type": "function",
      "signature": "0x861e4656"
    },
    {
      "constant": true,
      "inputs": [
        {
          "name": "",
          "type": "address"
        }
      ],
      "name": "users",
      "outputs": [
        {
          "name": "userid",
          "type": "address"
        },
        {
          "name": "uname",
          "type": "string"
        },
        {
          "name": "ucontact",
          "type": "uint256"
        },
        {
          "name": "uemail",
          "type": "string"
        },
        {
          "name": "upostalCode",
          "type": "uint256"
        },
        {
          "name": "city",
          "type": "string"
        },
        {
          "name": "exist",
          "type": "bool"
        }
      ],
      "payable": false,
      "stateMutability": "view",
      "type": "function",
      "signature": "0xa87430ba"
    },
    {
      "inputs": [],
      "payable": false,
      "stateMutability": "nonpayable",
      "type": "constructor",
      "signature": "constructor"
    },
    {
      "constant": false,
      "inputs": [
        {
          "name": "uid",
          "type": "address"
        },
        {
          "name": "_uname",
          "type": "string"
        },
        {
          "name": "_ucontact",
          "type": "uint256"
        },
        {
          "name": "_uemail",
          "type": "string"
        },
        {
          "name": "_ucode",
          "type": "uint256"
        },
        {
          "name": "_ucity",
          "type": "string"
        }
      ],
      "name": "addUser",
      "outputs": [
        {
          "name": "",
          "type": "bool"
        }
      ],
      "payable": false,
      "stateMutability": "nonpayable",
      "type": "function",
      "signature": "0x621fdbb7"
    },
    {
      "constant": true,
      "inputs": [
        {
          "name": "uid",
          "type": "address"
        }
      ],
      "name": "getUser",
      "outputs": [
        {
          "name": "",
          "type": "address"
        },
        {
          "name": "",
          "type": "string"
        },
        {
          "name": "",
          "type": "uint256"
        },
        {
          "name": "",
          "type": "string"
        },
        {
          "name": "",
          "type": "uint256"
        },
        {
          "name": "",
          "type": "string"
        },
        {
          "name": "",
          "type": "bool"
        }
      ],
      "payable": false,
      "stateMutability": "view",
      "type": "function",
      "signature": "0x6f77926b"
    },
    {
      "constant": false,
      "inputs": [
        {
          "name": "_id",
          "type": "address"
        },
        {
          "name": "_ipfsHash",
          "type": "string"
        },
        {
          "name": "_laddress",
          "type": "string"
        },
        {
          "name": "_lamount",
          "type": "uint256"
        },
        {
          "name": "_key",
          "type": "uint256"
        },
        {
          "name": "status",
          "type": "string"
        },
        {
          "name": "_isAvailable",
          "type": "string"
        }
      ],
      "name": "Registration",
      "outputs": [
        {
          "name": "",
          "type": "bool"
        }
      ],
      "payable": false,
      "stateMutability": "nonpayable",
      "type": "function",
      "signature": "0x0e435f08"
    },
    {
      "constant": true,
      "inputs": [
        {
          "name": "_laddress",
          "type": "string"
        },
        {
          "name": "_lamount",
          "type": "string"
        }
      ],
      "name": "computeId",
      "outputs": [
        {
          "name": "",
          "type": "uint256"
        }
      ],
      "payable": false,
      "stateMutability": "view",
      "type": "function",
      "signature": "0x3e40e296"
    },
    {
      "constant": true,
      "inputs": [],
      "name": "viewAssets",
      "outputs": [
        {
          "name": "",
          "type": "uint256[]"
        }
      ],
      "payable": false,
      "stateMutability": "view",
      "type": "function",
      "signature": "0x0d2d5dca"
    },
    {
      "constant": true,
      "inputs": [],
      "name": "Assets",
      "outputs": [
        {
          "name": "",
          "type": "uint256[]"
        }
      ],
      "payable": false,
      "stateMutability": "view",
      "type": "function",
      "signature": "0xae32a325"
    },
    {
      "constant": true,
      "inputs": [
        {
          "name": "id",
          "type": "uint256"
        }
      ],
      "name": "landInfoOwner",
      "outputs": [
        {
          "name": "",
          "type": "address"
        },
        {
          "name": "",
          "type": "string"
        },
        {
          "name": "",
          "type": "uint256"
        },
        {
          "name": "",
          "type": "string"
        },
        {
          "name": "",
          "type": "string"
        },
        {
          "name": "",
          "type": "address"
        },
        {
          "name": "",
          "type": "uint8"
        }
      ],
      "payable": false,
      "stateMutability": "view",
      "type": "function",
      "signature": "0x55d61952"
    },
    {
      "constant": false,
      "inputs": [
        {
          "name": "_id",
          "type": "uint256"
        },
        {
          "name": "status",
          "type": "string"
        },
        {
          "name": "_isAvailable",
          "type": "string"
        }
      ],
      "name": "govtStatus",
      "outputs": [
        {
          "name": "",
          "type": "bool"
        }
      ],
      "payable": false,
      "stateMutability": "nonpayable",
      "type": "function",
      "signature": "0xf2c7027f"
    },
    {
      "constant": false,
      "inputs": [
        {
          "name": "property",
          "type": "uint256"
        }
      ],
      "name": "makeAvailable",
      "outputs": [],
      "payable": false,
      "stateMutability": "nonpayable",
      "type": "function",
      "signature": "0xbaa39e05"
    },
    {
      "constant": false,
      "inputs": [
        {
          "name": "id",
          "type": "uint256"
        }
      ],
      "name": "requstToLandOwner",
      "outputs": [],
      "payable": false,
      "stateMutability": "nonpayable",
      "type": "function",
      "signature": "0x6c5ed939"
    },
    {
      "constant": false,
      "inputs": [
        {
          "name": "property",
          "type": "uint256"
        },
        {
          "name": "status",
          "type": "uint8"
        }
      ],
      "name": "processRequest",
      "outputs": [],
      "payable": false,
      "stateMutability": "nonpayable",
      "type": "function",
      "signature": "0xfdb10f50"
    },
    {
      "constant": false,
      "inputs": [
        {
          "name": "property",
          "type": "uint256"
        }
      ],
      "name": "buyProperty",
      "outputs": [],
      "payable": true,
      "stateMutability": "payable",
      "type": "function",
      "signature": "0x6fa830a6"
    },
    {
      "constant": true,
      "inputs": [
        {
          "name": "id",
          "type": "uint256"
        },
        {
          "name": "user",
          "type": "address"
        }
      ],
      "name": "findId",
      "outputs": [
        {
          "name": "",
          "type": "uint256"
        }
      ],
      "payable": false,
      "stateMutability": "view",
      "type": "function",
      "signature": "0xa27664ee"
    }
  ],
  "bytecode": "0x608060405234801561001057600080fd5b5033600260006101000a81548173ffffffffffffffffffffffffffffffffffffffff021916908373ffffffffffffffffffffffffffffffffffffffff160217905550613224806100616000396000f3fe6080604052600436106100db576000357c0100000000000000000000000000000000000000000000000000000000900463ffffffff1680630d2d5dca146100e05780630e435f081461014c5780633e40e2961461042557806355d6195214610598578063621fdbb7146107a65780636c5ed939146109e85780636f77926b14610a235780636fa830a614610c11578063861e465614610c3f578063a27664ee14610ec0578063a87430ba14610f2f578063ae32a3251461111d578063baa39e0514611189578063f2c7027f146111c4578063fdb10f5014611345575b600080fd5b3480156100ec57600080fd5b506100f561138d565b6040518080602001828103825283818151815260200191508051906020019060200280838360005b8381101561013857808201518184015260208101905061011d565b505050509050019250505060405180910390f35b34801561015857600080fd5b5061040b600480360360e081101561016f57600080fd5b81019080803573ffffffffffffffffffffffffffffffffffffffff169060200190929190803590602001906401000000008111156101ac57600080fd5b8201836020820111156101be57600080fd5b803590602001918460018302840111640100000000831117156101e057600080fd5b91908080601f016020809104026020016040519081016040528093929190818152602001838380828437600081840152601f19601f8201169050808301925050505050505091929192908035906020019064010000000081111561024357600080fd5b82018360208201111561025557600080fd5b8035906020019184600183028401116401000000008311171561027757600080fd5b91908080601f016020809104026020016040519081016040528093929190818152602001838380828437600081840152601f19601f8201169050808301925050505050505091929192908035906020019092919080359060200190929190803590602001906401000000008111156102ee57600080fd5b82018360208201111561030057600080fd5b8035906020019184600183028401116401000000008311171561032257600080fd5b91908080601f016020809104026020016040519081016040528093929190818152602001838380828437600081840152601f19601f8201169050808301925050505050505091929192908035906020019064010000000081111561038557600080fd5b82018360208201111561039757600080fd5b803590602001918460018302840111640100000000831117156103b957600080fd5b91908080601f016020809104026020016040519081016040528093929190818152602001838380828437600081840152601f19601f820116905080830192505050505050509192919290505050611425565b604051808215151515815260200191505060405180910390f35b34801561043157600080fd5b506105826004803603604081101561044857600080fd5b810190808035906020019064010000000081111561046557600080fd5b82018360208201111561047757600080fd5b8035906020019184600183028401116401000000008311171561049957600080fd5b91908080601f016020809104026020016040519081016040528093929190818152602001838380828437600081840152601f19601f820116905080830192505050505050509192919290803590602001906401000000008111156104fc57600080fd5b82018360208201111561050e57600080fd5b8035906020019184600183028401116401000000008311171561053057600080fd5b91908080601f016020809104026020016040519081016040528093929190818152602001838380828437600081840152601f19601f82011690508083019250505050505050919291929050505061169e565b6040518082815260200191505060405180910390f35b3480156105a457600080fd5b506105d1600480360360208110156105bb57600080fd5b8101908080359060200190929190505050611786565b604051808873ffffffffffffffffffffffffffffffffffffffff1673ffffffffffffffffffffffffffffffffffffffff1681526020018060200187815260200180602001806020018673ffffffffffffffffffffffffffffffffffffffff1673ffffffffffffffffffffffffffffffffffffffff16815260200185600381111561065757fe5b60ff16815260200184810384528a818151815260200191508051906020019080838360005b8381101561069757808201518184015260208101905061067c565b50505050905090810190601f1680156106c45780820380516001836020036101000a031916815260200191505b50848103835288818151815260200191508051906020019080838360005b838110156106fd5780820151818401526020810190506106e2565b50505050905090810190601f16801561072a5780820380516001836020036101000a031916815260200191505b50848103825287818151815260200191508051906020019080838360005b83811015610763578082015181840152602081019050610748565b50505050905090810190601f1680156107905780820380516001836020036101000a031916815260200191505b509a505050505050505050505060405180910390f35b3480156107b257600080fd5b506109ce600480360360c08110156107c957600080fd5b81019080803573ffffffffffffffffffffffffffffffffffffffff1690602001909291908035906020019064010000000081111561080657600080fd5b82018360208201111561081857600080fd5b8035906020019184600183028401116401000000008311171561083a57600080fd5b91908080601f016020809104026020016040519081016040528093929190818152602001838380828437600081840152601f19601f82011690508083019250505050505050919291929080359060200190929190803590602001906401000000008111156108a757600080fd5b8201836020820111156108b957600080fd5b803590602001918460018302840111640100000000831117156108db57600080fd5b91908080601f016020809104026020016040519081016040528093929190818152602001838380828437600081840152601f19601f820116905080830192505050505050509192919290803590602001909291908035906020019064010000000081111561094857600080fd5b82018360208201111561095a57600080fd5b8035906020019184600183028401116401000000008311171561097c57600080fd5b91908080601f016020809104026020016040519081016040528093929190818152602001838380828437600081840152601f19601f820116905080830192505050505050509192919290505050611a6a565b604051808215151515815260200191505060405180910390f35b3480156109f457600080fd5b50610a2160048036036020811015610a0b57600080fd5b8101908080359060200190929190505050611c41565b005b348015610a2f57600080fd5b50610a7260048036036020811015610a4657600080fd5b81019080803573ffffffffffffffffffffffffffffffffffffffff169060200190929190505050611d31565b604051808873ffffffffffffffffffffffffffffffffffffffff1673ffffffffffffffffffffffffffffffffffffffff1681526020018060200187815260200180602001868152602001806020018515151515815260200184810384528a818151815260200191508051906020019080838360005b83811015610b02578082015181840152602081019050610ae7565b50505050905090810190601f168015610b2f5780820380516001836020036101000a031916815260200191505b50848103835288818151815260200191508051906020019080838360005b83811015610b68578082015181840152602081019050610b4d565b50505050905090810190601f168015610b955780820380516001836020036101000a031916815260200191505b50848103825286818151815260200191508051906020019080838360005b83811015610bce578082015181840152602081019050610bb3565b50505050905090810190601f168015610bfb5780820380516001836020036101000a031916815260200191505b509a505050505050505050505060405180910390f35b610c3d60048036036020811015610c2757600080fd5b8101908080359060200190929190505050612186565b005b348015610c4b57600080fd5b50610c7860048036036020811015610c6257600080fd5b81019080803590602001909291905050506124ea565b604051808a73ffffffffffffffffffffffffffffffffffffffff1673ffffffffffffffffffffffffffffffffffffffff168152602001806020018060200189815260200188815260200180602001806020018773ffffffffffffffffffffffffffffffffffffffff1673ffffffffffffffffffffffffffffffffffffffff168152602001866003811115610d0857fe5b60ff16815260200185810385528d818151815260200191508051906020019080838360005b83811015610d48578082015181840152602081019050610d2d565b50505050905090810190601f168015610d755780820380516001836020036101000a031916815260200191505b5085810384528c818151815260200191508051906020019080838360005b83811015610dae578082015181840152602081019050610d93565b50505050905090810190601f168015610ddb5780820380516001836020036101000a031916815260200191505b50858103835289818151815260200191508051906020019080838360005b83811015610e14578082015181840152602081019050610df9565b50505050905090810190601f168015610e415780820380516001836020036101000a031916815260200191505b50858103825288818151815260200191508051906020019080838360005b83811015610e7a578082015181840152602081019050610e5f565b50505050905090810190601f168015610ea75780820380516001836020036101000a031916815260200191505b509d505050505050505050505050505060405180910390f35b348015610ecc57600080fd5b50610f1960048036036040811015610ee357600080fd5b8101908080359060200190929190803573ffffffffffffffffffffffffffffffffffffffff1690602001909291905050506127e5565b6040518082815260200191505060405180910390f35b348015610f3b57600080fd5b50610f7e60048036036020811015610f5257600080fd5b81019080803573ffffffffffffffffffffffffffffffffffffffff1690602001909291905050506128bc565b604051808873ffffffffffffffffffffffffffffffffffffffff1673ffffffffffffffffffffffffffffffffffffffff1681526020018060200187815260200180602001868152602001806020018515151515815260200184810384528a818151815260200191508051906020019080838360005b8381101561100e578082015181840152602081019050610ff3565b50505050905090810190601f16801561103b5780820380516001836020036101000a031916815260200191505b50848103835288818151815260200191508051906020019080838360005b83811015611074578082015181840152602081019050611059565b50505050905090810190601f1680156110a15780820380516001836020036101000a031916815260200191505b50848103825286818151815260200191508051906020019080838360005b838110156110da5780820151818401526020810190506110bf565b50505050905090810190601f1680156111075780820380516001836020036101000a031916815260200191505b509a505050505050505050505060405180910390f35b34801561112957600080fd5b50611132612af3565b6040518080602001828103825283818151815260200191508051906020019060200280838360005b8381101561117557808201518184015260208101905061115a565b505050509050019250505060405180910390f35b34801561119557600080fd5b506111c2600480360360208110156111ac57600080fd5b8101908080359060200190929190505050612b4b565b005b3480156111d057600080fd5b5061132b600480360360608110156111e757600080fd5b81019080803590602001909291908035906020019064010000000081111561120e57600080fd5b82018360208201111561122057600080fd5b8035906020019184600183028401116401000000008311171561124257600080fd5b91908080601f016020809104026020016040519081016040528093929190818152602001838380828437600081840152601f19601f820116905080830192505050505050509192919290803590602001906401000000008111156112a557600080fd5b8201836020820111156112b757600080fd5b803590602001918460018302840111640100000000831117156112d957600080fd5b91908080601f016020809104026020016040519081016040528093929190818152602001838380828437600081840152601f19601f820116905080830192505050505050509192919290505050612c1e565b604051808215151515815260200191505060405180910390f35b34801561135157600080fd5b5061138b6004803603604081101561136857600080fd5b8101908080359060200190929190803560ff169060200190929190505050612c81565b005b6060600360003373ffffffffffffffffffffffffffffffffffffffff1673ffffffffffffffffffffffffffffffffffffffff16815260200190815260200160002060000180548060200260200160405190810160405280929190818152602001828054801561141b57602002820191906000526020600020905b815481526020019060010190808311611407575b5050505050905090565b6000610120604051908101604052808973ffffffffffffffffffffffffffffffffffffffff168152602001888152602001878152602001868152602001858152602001848152602001838152602001600073ffffffffffffffffffffffffffffffffffffffff1681526020016000600381111561149e57fe5b8152506005600086815260200190815260200160002060008201518160000160006101000a81548173ffffffffffffffffffffffffffffffffffffffff021916908373ffffffffffffffffffffffffffffffffffffffff16021790555060208201518160010190805190602001906115179291906130a7565b5060408201518160020190805190602001906115349291906130a7565b50606082015181600301556080820151816004015560a08201518160050190805190602001906115659291906130a7565b5060c08201518160060190805190602001906115829291906130a7565b5060e08201518160070160006101000a81548173ffffffffffffffffffffffffffffffffffffffff021916908373ffffffffffffffffffffffffffffffffffffffff1602179055506101008201518160070160146101000a81548160ff021916908360038111156115ef57fe5b0217905550905050600360008973ffffffffffffffffffffffffffffffffffffffff1673ffffffffffffffffffffffffffffffffffffffff168152602001908152602001600020600001849080600181540180825580915050906001820390600052602060002001600090919290919091505550600184908060018154018082558091505090600182039060005260206000200160009091929091909150555060019050979650505050505050565b60006509184e72a00083836040516020018083805190602001908083835b6020831015156116e157805182526020820191506020810190506020830392506116bc565b6001836020036101000a03801982511681845116808217855250505050505090500182805190602001908083835b602083101515611734578051825260208201915060208101905060208303925061170f565b6001836020036101000a03801982511681845116808217855250505050505090500192505050604051602081830303815290604052805190602001206001900481151561177d57fe5b06905092915050565b6000606060006060806000806005600089815260200190815260200160002060000160009054906101000a900473ffffffffffffffffffffffffffffffffffffffff16600560008a8152602001908152602001600020600101600560008b815260200190815260200160002060030154600560008c8152602001908152602001600020600501600560008d8152602001908152602001600020600601600560008e815260200190815260200160002060070160009054906101000a900473ffffffffffffffffffffffffffffffffffffffff16600560008f815260200190815260200160002060070160149054906101000a900460ff16858054600181600116156101000203166002900480601f0160208091040260200160405190810160405280929190818152602001828054600181600116156101000203166002900480156119125780601f106118e757610100808354040283529160200191611912565b820191906000526020600020905b8154815290600101906020018083116118f557829003601f168201915b50505050509550838054600181600116156101000203166002900480601f0160208091040260200160405190810160405280929190818152602001828054600181600116156101000203166002900480156119ae5780601f10611983576101008083540402835291602001916119ae565b820191906000526020600020905b81548152906001019060200180831161199157829003601f168201915b50505050509350828054600181600116156101000203166002900480601f016020809104026020016040519081016040528092919081815260200182805460018160011615610100020316600290048015611a4a5780601f10611a1f57610100808354040283529160200191611a4a565b820191906000526020600020905b815481529060010190602001808311611a2d57829003601f168201915b505050505092509650965096509650965096509650919395979092949650565b600060e0604051908101604052808873ffffffffffffffffffffffffffffffffffffffff16815260200187815260200186815260200185815260200184815260200183815260200160011515815250600460008973ffffffffffffffffffffffffffffffffffffffff1673ffffffffffffffffffffffffffffffffffffffff16815260200190815260200160002060008201518160000160006101000a81548173ffffffffffffffffffffffffffffffffffffffff021916908373ffffffffffffffffffffffffffffffffffffffff1602179055506020820151816001019080519060200190611b5b9291906130a7565b50604082015181600201556060820151816003019080519060200190611b829291906130a7565b506080820151816004015560a0820151816005019080519060200190611ba99291906130a7565b5060c08201518160060160006101000a81548160ff02191690831515021790555090505060008790806001815401808255809150509060018203906000526020600020016000909192909190916101000a81548173ffffffffffffffffffffffffffffffffffffffff021916908373ffffffffffffffffffffffffffffffffffffffff16021790555050600190509695505050505050565b336005600083815260200190815260200160002060070160006101000a81548173ffffffffffffffffffffffffffffffffffffffff021916908373ffffffffffffffffffffffffffffffffffffffff1602179055506040805190810160405280600781526020017f50656e64696e6700000000000000000000000000000000000000000000000000815250600560008381526020019081526020016000206006019080519060200190611cf5929190613127565b5060016005600083815260200190815260200160002060070160146101000a81548160ff02191690836003811115611d2957fe5b021790555050565b6000606060006060600060606000600460008973ffffffffffffffffffffffffffffffffffffffff1673ffffffffffffffffffffffffffffffffffffffff16815260200190815260200160002060060160009054906101000a900460ff161561217a57600460008973ffffffffffffffffffffffffffffffffffffffff1673ffffffffffffffffffffffffffffffffffffffff16815260200190815260200160002060000160009054906101000a900473ffffffffffffffffffffffffffffffffffffffff16600460008a73ffffffffffffffffffffffffffffffffffffffff1673ffffffffffffffffffffffffffffffffffffffff168152602001908152602001600020600101600460008b73ffffffffffffffffffffffffffffffffffffffff1673ffffffffffffffffffffffffffffffffffffffff16815260200190815260200160002060020154600460008c73ffffffffffffffffffffffffffffffffffffffff1673ffffffffffffffffffffffffffffffffffffffff168152602001908152602001600020600301600460008d73ffffffffffffffffffffffffffffffffffffffff1673ffffffffffffffffffffffffffffffffffffffff16815260200190815260200160002060040154600460008e73ffffffffffffffffffffffffffffffffffffffff1673ffffffffffffffffffffffffffffffffffffffff168152602001908152602001600020600501600460008f73ffffffffffffffffffffffffffffffffffffffff1673ffffffffffffffffffffffffffffffffffffffff16815260200190815260200160002060060160009054906101000a900460ff16858054600181600116156101000203166002900480601f0160208091040260200160405190810160405280929190818152602001828054600181600116156101000203166002900480156120285780601f10611ffd57610100808354040283529160200191612028565b820191906000526020600020905b81548152906001019060200180831161200b57829003601f168201915b50505050509550838054600181600116156101000203166002900480601f0160208091040260200160405190810160405280929190818152602001828054600181600116156101000203166002900480156120c45780601f10612099576101008083540402835291602001916120c4565b820191906000526020600020905b8154815290600101906020018083116120a757829003601f168201915b50505050509350818054600181600116156101000203166002900480601f0160208091040260200160405190810160405280929190818152602001828054600181600116156101000203166002900480156121605780601f1061213557610100808354040283529160200191612160565b820191906000526020600020905b81548152906001019060200180831161214357829003601f168201915b50505050509150965096509650965096509650965061217b565b5b919395979092949650565b60038081111561219257fe5b6005600083815260200190815260200160002060070160149054906101000a900460ff1660038111156121c157fe5b1415156121cd57600080fd5b670de0b6b3a7640000600560008381526020019081526020016000206003015402341415156121fb57600080fd5b6005600082815260200190815260200160002060000160009054906101000a900473ffffffffffffffffffffffffffffffffffffffff1673ffffffffffffffffffffffffffffffffffffffff166108fc670de0b6b3a76400006005600085815260200190815260200160002060030154029081150290604051600060405180830381858888f19350505050158015612297573d6000803e3d6000fd5b506122d86005600083815260200190815260200160002060000160009054906101000a900473ffffffffffffffffffffffffffffffffffffffff1682612e9a565b336005600083815260200190815260200160002060000160006101000a81548173ffffffffffffffffffffffffffffffffffffffff021916908373ffffffffffffffffffffffffffffffffffffffff1602179055506040805190810160405280600c81526020017f4e6f7420417070726f766564000000000000000000000000000000000000000081525060056000838152602001908152602001600020600501908051906020019061238c929190613127565b506040805190810160405280601d81526020017f4e6f742079657420617070726f7665642062792074686520676f76742e0000008152506005600083815260200190815260200160002060060190805190602001906123ec929190613127565b5060006005600083815260200190815260200160002060070160006101000a81548173ffffffffffffffffffffffffffffffffffffffff021916908373ffffffffffffffffffffffffffffffffffffffff16021790555060006005600083815260200190815260200160002060070160146101000a81548160ff0219169083600381111561247657fe5b0217905550600360003373ffffffffffffffffffffffffffffffffffffffff1673ffffffffffffffffffffffffffffffffffffffff16815260200190815260200160002060000181908060018154018082558091505090600182039060005260206000200160009091929091909150555050565b60056020528060005260406000206000915090508060000160009054906101000a900473ffffffffffffffffffffffffffffffffffffffff1690806001018054600181600116156101000203166002900480601f0160208091040260200160405190810160405280929190818152602001828054600181600116156101000203166002900480156125bc5780601f10612591576101008083540402835291602001916125bc565b820191906000526020600020905b81548152906001019060200180831161259f57829003601f168201915b505050505090806002018054600181600116156101000203166002900480601f01602080910402602001604051908101604052809291908181526020018280546001816001161561010002031660029004801561265a5780601f1061262f5761010080835404028352916020019161265a565b820191906000526020600020905b81548152906001019060200180831161263d57829003601f168201915b505050505090806003015490806004015490806005018054600181600116156101000203166002900480601f0160208091040260200160405190810160405280929190818152602001828054600181600116156101000203166002900480156127045780601f106126d957610100808354040283529160200191612704565b820191906000526020600020905b8154815290600101906020018083116126e757829003601f168201915b505050505090806006018054600181600116156101000203166002900480601f0160208091040260200160405190810160405280929190818152602001828054600181600116156101000203166002900480156127a25780601f10612777576101008083540402835291602001916127a2565b820191906000526020600020905b81548152906001019060200180831161278557829003601f168201915b5050505050908060070160009054906101000a900473ffffffffffffffffffffffffffffffffffffffff16908060070160149054906101000a900460ff16905089565b600080600090505b600360008473ffffffffffffffffffffffffffffffffffffffff1673ffffffffffffffffffffffffffffffffffffffff168152602001908152602001600020600001805490508110156128b15783600360008573ffffffffffffffffffffffffffffffffffffffff1673ffffffffffffffffffffffffffffffffffffffff1681526020019081526020016000206000018281548110151561288a57fe5b906000526020600020015414156128a457809150506128b6565b80806001019150506127ed565b809150505b92915050565b60046020528060005260406000206000915090508060000160009054906101000a900473ffffffffffffffffffffffffffffffffffffffff1690806001018054600181600116156101000203166002900480601f01602080910402602001604051908101604052809291908181526020018280546001816001161561010002031660029004801561298e5780601f106129635761010080835404028352916020019161298e565b820191906000526020600020905b81548152906001019060200180831161297157829003601f168201915b505050505090806002015490806003018054600181600116156101000203166002900480601f016020809104026020016040519081016040528092919081815260200182805460018160011615610100020316600290048015612a325780601f10612a0757610100808354040283529160200191612a32565b820191906000526020600020905b815481529060010190602001808311612a1557829003601f168201915b505050505090806004015490806005018054600181600116156101000203166002900480601f016020809104026020016040519081016040528092919081815260200182805460018160011615610100020316600290048015612ad65780601f10612aab57610100808354040283529160200191612ad6565b820191906000526020600020905b815481529060010190602001808311612ab957829003601f168201915b5050505050908060060160009054906101000a900460ff16905087565b60606001805480602002602001604051908101604052809291908181526020018280548015612b4157602002820191906000526020600020905b815481526020019060010190808311612b2d575b5050505050905090565b3373ffffffffffffffffffffffffffffffffffffffff166005600083815260200190815260200160002060000160009054906101000a900473ffffffffffffffffffffffffffffffffffffffff1673ffffffffffffffffffffffffffffffffffffffff16141515612bbb57600080fd5b6040805190810160405280600981526020017f417661696c61626c650000000000000000000000000000000000000000000000815250600560008381526020019081526020016000206006019080519060200190612c1a929190613127565b5050565b600082600560008681526020019081526020016000206005019080519060200190612c4a929190613127565b5081600560008681526020019081526020016000206006019080519060200190612c75929190613127565b50600190509392505050565b3373ffffffffffffffffffffffffffffffffffffffff166005600084815260200190815260200160002060000160009054906101000a900473ffffffffffffffffffffffffffffffffffffffff1673ffffffffffffffffffffffffffffffffffffffff16141515612cf157600080fd5b806005600084815260200190815260200160002060070160146101000a81548160ff02191690836003811115612d2357fe5b02179055506040805190810160405280600881526020017f417070726f766564000000000000000000000000000000000000000000000000815250600560008481526020019081526020016000206006019080519060200190612d87929190613127565b5060026003811115612d9557fe5b816003811115612da157fe5b1415612e965760006005600084815260200190815260200160002060070160006101000a81548173ffffffffffffffffffffffffffffffffffffffff021916908373ffffffffffffffffffffffffffffffffffffffff16021790555060006005600084815260200190815260200160002060070160146101000a81548160ff02191690836003811115612e3057fe5b02179055506040805190810160405280600981526020017f417661696c61626c650000000000000000000000000000000000000000000000815250600560008481526020019081526020016000206006019080519060200190612e94929190613127565b505b5050565b6000612ea682846127e5565b9050600360008473ffffffffffffffffffffffffffffffffffffffff1673ffffffffffffffffffffffffffffffffffffffff1681526020019081526020016000206000016001600360008673ffffffffffffffffffffffffffffffffffffffff1673ffffffffffffffffffffffffffffffffffffffff1681526020019081526020016000206000018054905003815481101515612f3f57fe5b9060005260206000200154600360008573ffffffffffffffffffffffffffffffffffffffff1673ffffffffffffffffffffffffffffffffffffffff16815260200190815260200160002060000182815481101515612f9957fe5b9060005260206000200181905550600360008473ffffffffffffffffffffffffffffffffffffffff1673ffffffffffffffffffffffffffffffffffffffff1681526020019081526020016000206000016001600360008673ffffffffffffffffffffffffffffffffffffffff1673ffffffffffffffffffffffffffffffffffffffff168152602001908152602001600020600001805490500381548110151561303e57fe5b9060005260206000200160009055600360008473ffffffffffffffffffffffffffffffffffffffff1673ffffffffffffffffffffffffffffffffffffffff1681526020019081526020016000206000018054809190600190036130a191906131a7565b50505050565b828054600181600116156101000203166002900490600052602060002090601f016020900481019282601f106130e857805160ff1916838001178555613116565b82800160010185558215613116579182015b828111156131155782518255916020019190600101906130fa565b5b50905061312391906131d3565b5090565b828054600181600116156101000203166002900490600052602060002090601f016020900481019282601f1061316857805160ff1916838001178555613196565b82800160010185558215613196579182015b8281111561319557825182559160200191906001019061317a565b5b5090506131a391906131d3565b5090565b8154818355818111156131ce578183600052602060002091820191016131cd91906131d3565b5b505050565b6131f591905b808211156131f15760008160009055506001016131d9565b5090565b9056fea165627a7a72305820781a078b944cb9bcad318dc8ef1602d20221befb6e9be7df37b65fe88229c4030029",
  "source": "pragma solidity ^0.5.0;\n\ncontract LandRegistry {\n    struct Task {\n        uint256 id;\n        string content;\n        bool completed;\n    }\n    struct user {\n        address userid;\n        string uname;\n        uint256 ucontact;\n        string uemail;\n        uint256 upostalCode;\n        string city;\n        bool exist;\n    }\n    struct landDetails {\n        address payable id;\n        string ipfsHash;\n        string laddress;\n        uint256 lamount;\n        uint256 key;\n        string isGovtApproved;\n        string isAvailable;\n        address requester;\n        reqStatus requestStatus;\n    }\n\n    address[] userarr;\n    uint256[] assets;\n    address owner;\n    enum reqStatus {Default, Pending, Rejected, Approved}\n\n    constructor() public {\n        owner = msg.sender;\n    }\n\n    struct profiles {\n        uint256[] assetList;\n    }\n\n    mapping(address => profiles) profile;\n\n    mapping(address => user) public users;\n    mapping(uint256 => landDetails) public land;\n\n    function addUser(\n        address uid,\n        string memory _uname,\n        uint256 _ucontact,\n        string memory _uemail,\n        uint256 _ucode,\n        string memory _ucity\n    ) public returns (bool) {\n        users[uid] = user(\n            uid,\n            _uname,\n            _ucontact,\n            _uemail,\n            _ucode,\n            _ucity,\n            true\n        );\n        userarr.push(uid);\n        return true;\n    }\n\n    function getUser(address uid)\n        public\n        view\n        returns (\n            address,\n            string memory,\n            uint256,\n            string memory,\n            uint256,\n            string memory,\n            bool\n        )\n    {\n        if (users[uid].exist)\n            return (\n                users[uid].userid,\n                users[uid].uname,\n                users[uid].ucontact,\n                users[uid].uemail,\n                users[uid].upostalCode,\n                users[uid].city,\n                users[uid].exist\n            );\n    }\n\n    function Registration(\n        address payable _id,\n        string memory _ipfsHash,\n        string memory _laddress,\n        uint256 _lamount,\n        uint256 _key,\n        string memory status,\n        string memory _isAvailable\n    ) public returns (bool) {\n        land[_key] = landDetails(\n            _id,\n            _ipfsHash,\n            _laddress,\n            _lamount,\n            _key,\n            status,\n            _isAvailable,\n            0x0000000000000000000000000000000000000000,\n            reqStatus.Default\n        );\n        profile[_id].assetList.push(_key);\n        assets.push(_key);\n        return true;\n    }\n\n    function computeId(string memory _laddress, string memory _lamount)\n        public\n        view\n        returns (uint256)\n    {\n        return\n            uint256(keccak256(abi.encodePacked(_laddress, _lamount))) %\n            10000000000000;\n    }\n\n    function viewAssets() public view returns (uint256[] memory) {\n        return (profile[msg.sender].assetList);\n    }\n\n    function Assets() public view returns (uint256[] memory) {\n        return assets;\n    }\n\n    function landInfoOwner(uint256 id)\n        public\n        view\n        returns (\n            address payable,\n            string memory,\n            uint256,\n            string memory,\n            string memory,\n            address,\n            reqStatus\n        )\n    {\n        return (\n            land[id].id,\n            land[id].ipfsHash,\n            land[id].lamount,\n            land[id].isGovtApproved,\n            land[id].isAvailable,\n            land[id].requester,\n            land[id].requestStatus\n        );\n    }\n\n    function govtStatus(\n        uint256 _id,\n        string memory status,\n        string memory _isAvailable\n    ) public returns (bool) {\n        land[_id].isGovtApproved = status;\n        land[_id].isAvailable = _isAvailable;\n        return true;\n    }\n\n    function makeAvailable(uint256 property) public {\n        require(land[property].id == msg.sender);\n        land[property].isAvailable = \"Available\";\n    }\n\n    function requstToLandOwner(uint256 id) public {\n        land[id].requester = msg.sender;\n        land[id].isAvailable = \"Pending\";\n        land[id].requestStatus = reqStatus.Pending;\n    }\n\n    function processRequest(uint256 property, reqStatus status) public {\n        require(land[property].id == msg.sender);\n        land[property].requestStatus = status;\n        land[property].isAvailable = \"Approved\";\n        if (status == reqStatus.Rejected) {\n            land[property].requester = address(0);\n            land[property].requestStatus = reqStatus.Default;\n            land[property].isAvailable = \"Available\";\n        }\n    }\n\n    function buyProperty(uint256 property) public payable {\n        require(land[property].requestStatus == reqStatus.Approved);\n        require(msg.value == (land[property].lamount * 1000000000000000000));\n        land[property].id.transfer(\n            land[property].lamount * 1000000000000000000\n        );\n        removeOwnership(land[property].id, property);\n        land[property].id = msg.sender;\n        land[property].isGovtApproved = \"Not Approved\";\n        land[property].isAvailable = \"Not yet approved by the govt.\";\n        land[property].requester = address(0);\n        land[property].requestStatus = reqStatus.Default;\n        profile[msg.sender].assetList.push(property);\n    }\n\n    function removeOwnership(address previousOwner, uint256 id) private {\n        uint256 index = findId(id, previousOwner);\n        profile[previousOwner].assetList[index] = profile[previousOwner]\n            .assetList[profile[previousOwner].assetList.length - 1];\n        delete profile[previousOwner].assetList[profile[previousOwner]\n            .assetList\n            .length - 1];\n        profile[previousOwner].assetList.length--;\n    }\n\n    function findId(uint256 id, address user) public view returns (uint256) {\n        uint256 i;\n        for (i = 0; i < profile[user].assetList.length; i++) {\n            if (profile[user].assetList[i] == id) return i;\n        }\n        return i;\n    }\n}\n",
  "sourcePath": "/Users/nikhilagrawal/Desktop/Land-Registry-Application copy 2/src/contracts/LandRegistry.sol",
  "compiler": {
    "name": "solc",
    "version": "0.5.0+commit.1d4f565a.Emscripten.clang"
  },
  "schemaVersion": "3.0.2",
  "updatedAt": "2023-05-09T18:57:16.784Z",
  "devdoc": {
    "methods": {}
  },
  "userdoc": {
    "methods": {}
  }
}